{
    "contractName": "VotingContract",
    "abi": [
        {
            "inputs": [
                {
                    "internalType": "string[]",
                    "name": "proposalNames",
                    "type": "string[]"
                }
            ],
            "stateMutability": "nonpayable",
            "type": "constructor"
        },
        {
            "anonymous": false,
            "inputs": [
                {
                    "indexed": true,
                    "internalType": "address",
                    "name": "previousOwner",
                    "type": "address"
                },
                {
                    "indexed": true,
                    "internalType": "address",
                    "name": "newOwner",
                    "type": "address"
                }
            ],
            "name": "OwnershipTransferred",
            "type": "event"
        },
        {
            "inputs": [
                {
                    "internalType": "uint256",
                    "name": "proposalId",
                    "type": "uint256"
                }
            ],
            "name": "getProposal",
            "outputs": [
                {
                    "internalType": "string",
                    "name": "",
                    "type": "string"
                },
                {
                    "internalType": "uint256",
                    "name": "",
                    "type": "uint256"
                }
            ],
            "stateMutability": "view",
            "type": "function"
        },
        {
            "inputs": [],
            "name": "getProposalCount",
            "outputs": [
                {
                    "internalType": "uint256",
                    "name": "",
                    "type": "uint256"
                }
            ],
            "stateMutability": "view",
            "type": "function"
        },
        {
            "inputs": [],
            "name": "owner",
            "outputs": [
                {
                    "internalType": "address",
                    "name": "",
                    "type": "address"
                }
            ],
            "stateMutability": "view",
            "type": "function"
        },
        {
            "inputs": [
                {
                    "internalType": "uint256",
                    "name": "",
                    "type": "uint256"
                }
            ],
            "name": "proposals",
            "outputs": [
                {
                    "internalType": "string",
                    "name": "name",
                    "type": "string"
                },
                {
                    "internalType": "uint256",
                    "name": "voteCount",
                    "type": "uint256"
                }
            ],
            "stateMutability": "view",
            "type": "function"
        },
        {
            "inputs": [],
            "name": "renounceOwnership",
            "outputs": [],
            "stateMutability": "nonpayable",
            "type": "function"
        },
        {
            "inputs": [
                {
                    "internalType": "address",
                    "name": "newOwner",
                    "type": "address"
                }
            ],
            "name": "transferOwnership",
            "outputs": [],
            "stateMutability": "nonpayable",
            "type": "function"
        },
        {
            "inputs": [
                {
                    "internalType": "uint256",
                    "name": "proposalId",
                    "type": "uint256"
                }
            ],
            "name": "vote",
            "outputs": [],
            "stateMutability": "nonpayable",
            "type": "function"
        }
    ],
    "bytecode": "60806040523480156200001157600080fd5b5060405162000a5238038062000a5283398101604081905262000034916200016c565b6200003f33620000d3565b60005b8151811015620000cb57600160405180604001604052808484815181106200006e576200006e620002b0565b60209081029190910181015182526000918101829052835460018101855593825290208151919260020201908190620000a8908262000355565b506020820151816001015550508080620000c29062000421565b91505062000042565b505062000449565b600080546001600160a01b038381166001600160a01b0319831681178455604051919092169283917f8be0079c531659141344cd1fd0a4f28419497f9722a3daafe3b4186f6b6457e09190a35050565b634e487b7160e01b600052604160045260246000fd5b604051601f8201601f191681016001600160401b038111828210171562000164576200016462000123565b604052919050565b600060208083850312156200018057600080fd5b82516001600160401b03808211156200019857600080fd5b8185019150601f8681840112620001ae57600080fd5b825182811115620001c357620001c362000123565b8060051b620001d486820162000139565b918252848101860191868101908a841115620001ef57600080fd5b87870192505b83831015620002a2578251868111156200020f5760008081fd5b8701603f81018c13620002225760008081fd5b888101518781111562000239576200023962000123565b6200024c818801601f19168b0162000139565b81815260408e81848601011115620002645760008081fd5b60005b8381101562000284578481018201518382018e01528c0162000267565b505060009181018b01919091528352509187019190870190620001f5565b9a9950505050505050505050565b634e487b7160e01b600052603260045260246000fd5b600181811c90821680620002db57607f821691505b602082108103620002fc57634e487b7160e01b600052602260045260246000fd5b50919050565b601f8211156200035057600081815260208120601f850160051c810160208610156200032b5750805b601f850160051c820191505b818110156200034c5782815560010162000337565b5050505b505050565b81516001600160401b0381111562000371576200037162000123565b6200038981620003828454620002c6565b8462000302565b602080601f831160018114620003c15760008415620003a85750858301515b600019600386901b1c1916600185901b1785556200034c565b600085815260208120601f198616915b82811015620003f257888601518255948401946001909101908401620003d1565b5085821015620004115787850151600019600388901b60f8161c191681555b5050505050600190811b01905550565b6000600182016200044257634e487b7160e01b600052601160045260246000fd5b5060010190565b6105f980620004596000396000f3fe608060405234801561001057600080fd5b506004361061007d5760003560e01c80638da5cb5b1161005b5780638da5cb5b146100c9578063c08cc02d146100e4578063c7f758a8146100f5578063f2fde38b1461010857600080fd5b80630121b93f14610082578063013cf08b14610097578063715018a6146100c1575b600080fd5b6100956100903660046104ae565b61011b565b005b6100aa6100a53660046104ae565b6101aa565b6040516100b89291906104c7565b60405180910390f35b610095610266565b6000546040516001600160a01b0390911681526020016100b8565b6001546040519081526020016100b8565b6100aa6101033660046104ae565b61027a565b61009561011636600461051c565b61038b565b60015481106101675760405162461bcd60e51b8152602060048201526013602482015272125b9d985b1a59081c1c9bdc1bdcd85b081251606a1b60448201526064015b60405180910390fd5b60006001828154811061017c5761017c61054c565b906000526020600020906002020190508060010160008154809291906101a190610562565b91905055505050565b600181815481106101ba57600080fd5b90600052602060002090600202016000915090508060000180546101dd90610589565b80601f016020809104026020016040519081016040528092919081815260200182805461020990610589565b80156102565780601f1061022b57610100808354040283529160200191610256565b820191906000526020600020905b81548152906001019060200180831161023957829003601f168201915b5050505050908060010154905082565b61026e610404565b610278600061045e565b565b60015460609060009083106102c75760405162461bcd60e51b8152602060048201526013602482015272125b9d985b1a59081c1c9bdc1bdcd85b081251606a1b604482015260640161015e565b6000600184815481106102dc576102dc61054c565b9060005260206000209060020201905080600001816001015481805461030190610589565b80601f016020809104026020016040519081016040528092919081815260200182805461032d90610589565b801561037a5780601f1061034f5761010080835404028352916020019161037a565b820191906000526020600020905b81548152906001019060200180831161035d57829003601f168201915b505050505091509250925050915091565b610393610404565b6001600160a01b0381166103f85760405162461bcd60e51b815260206004820152602660248201527f4f776e61626c653a206e6577206f776e657220697320746865207a65726f206160448201526564647265737360d01b606482015260840161015e565b6104018161045e565b50565b6000546001600160a01b031633146102785760405162461bcd60e51b815260206004820181905260248201527f4f776e61626c653a2063616c6c6572206973206e6f7420746865206f776e6572604482015260640161015e565b600080546001600160a01b038381166001600160a01b0319831681178455604051919092169283917f8be0079c531659141344cd1fd0a4f28419497f9722a3daafe3b4186f6b6457e09190a35050565b6000602082840312156104c057600080fd5b5035919050565b604081526000835180604084015260005b818110156104f557602081870181015160608684010152016104d8565b506000606082850101526060601f19601f8301168401019150508260208301529392505050565b60006020828403121561052e57600080fd5b81356001600160a01b038116811461054557600080fd5b9392505050565b634e487b7160e01b600052603260045260246000fd5b60006001820161058257634e487b7160e01b600052601160045260246000fd5b5060010190565b600181811c9082168061059d57607f821691505b6020821081036105bd57634e487b7160e01b600052602260045260246000fd5b5091905056fea26469706673582212208c528586ff9c2c25f66cdb63b1abb8146591e4153f3d55dd599a78ec0a1c32a364736f6c63430008130033",
    "sourcePath": "/Users/BLucey/Desktop/Coding/Dev/Projects/webApps/web3/voting-dapp/src/contracts/VotingContract.sol",
    "compiler": {
        "name": "solc",
        "version": "0.8.19+commit.7dd6d404"
    },
    "functionHashes": {
        "getProposal(uint256)": "c7f758a8",
        "getProposalCount()": "c08cc02d",
        "owner()": "8da5cb5b",
        "proposals(uint256)": "013cf08b",
        "renounceOwnership()": "715018a6",
        "transferOwnership(address)": "f2fde38b",
        "vote(uint256)": "0121b93f"
    },
    "gasEstimates": {
        "creation": {
            "codeDepositCost": "305800",
            "executionCost": "infinite",
            "totalCost": "infinite"
        },
        "external": {
            "getProposal(uint256)": "infinite",
            "getProposalCount()": "2302",
            "owner()": "2301",
            "proposals(uint256)": "infinite",
            "renounceOwnership()": "infinite",
            "transferOwnership(address)": "28364",
            "vote(uint256)": "28852"
        }
    }
}